{
  "contractName": "Booking",
  "abi": [
    {
      "constant": true,
      "inputs": [],
      "name": "totalSupply",
      "outputs": [
        {
          "name": "",
          "type": "uint256"
        }
      ],
      "payable": false,
      "stateMutability": "view",
      "type": "function"
    },
    {
      "constant": true,
      "inputs": [
        {
          "name": "",
          "type": "uint256"
        }
      ],
      "name": "rooms",
      "outputs": [
        {
          "name": "",
          "type": "uint256"
        }
      ],
      "payable": false,
      "stateMutability": "view",
      "type": "function"
    },
    {
      "constant": true,
      "inputs": [],
      "name": "owner_2",
      "outputs": [
        {
          "name": "",
          "type": "address"
        }
      ],
      "payable": false,
      "stateMutability": "view",
      "type": "function"
    },
    {
      "constant": true,
      "inputs": [],
      "name": "INITIAL_SUPPLY",
      "outputs": [
        {
          "name": "",
          "type": "uint256"
        }
      ],
      "payable": false,
      "stateMutability": "view",
      "type": "function"
    },
    {
      "constant": false,
      "inputs": [
        {
          "name": "_from",
          "type": "address"
        },
        {
          "name": "_to",
          "type": "address"
        },
        {
          "name": "_value",
          "type": "uint256"
        }
      ],
      "name": "_transfer",
      "outputs": [],
      "payable": false,
      "stateMutability": "nonpayable",
      "type": "function"
    },
    {
      "constant": false,
      "inputs": [
        {
          "name": "_to",
          "type": "address"
        },
        {
          "name": "_value",
          "type": "uint256"
        }
      ],
      "name": "mint",
      "outputs": [
        {
          "name": "",
          "type": "bool"
        }
      ],
      "payable": false,
      "stateMutability": "nonpayable",
      "type": "function"
    },
    {
      "constant": false,
      "inputs": [
        {
          "name": "_value",
          "type": "uint256"
        }
      ],
      "name": "burn",
      "outputs": [
        {
          "name": "success",
          "type": "bool"
        }
      ],
      "payable": false,
      "stateMutability": "nonpayable",
      "type": "function"
    },
    {
      "constant": true,
      "inputs": [
        {
          "name": "account",
          "type": "address"
        }
      ],
      "name": "getTokenBalanceAddr",
      "outputs": [
        {
          "name": "",
          "type": "uint256"
        }
      ],
      "payable": false,
      "stateMutability": "view",
      "type": "function"
    },
    {
      "constant": true,
      "inputs": [
        {
          "name": "",
          "type": "address"
        }
      ],
      "name": "balanceOf",
      "outputs": [
        {
          "name": "",
          "type": "uint256"
        }
      ],
      "payable": false,
      "stateMutability": "view",
      "type": "function"
    },
    {
      "constant": true,
      "inputs": [],
      "name": "getTokenBalance",
      "outputs": [
        {
          "name": "",
          "type": "uint256"
        }
      ],
      "payable": false,
      "stateMutability": "view",
      "type": "function"
    },
    {
      "constant": true,
      "inputs": [
        {
          "name": "",
          "type": "uint256"
        }
      ],
      "name": "roomMap",
      "outputs": [
        {
          "name": "_sellPrice",
          "type": "uint256"
        },
        {
          "name": "_roomID",
          "type": "uint256"
        },
        {
          "name": "holder",
          "type": "address"
        },
        {
          "name": "blocked",
          "type": "bool"
        },
        {
          "name": "booked",
          "type": "bool"
        }
      ],
      "payable": false,
      "stateMutability": "view",
      "type": "function"
    },
    {
      "constant": true,
      "inputs": [],
      "name": "owner",
      "outputs": [
        {
          "name": "",
          "type": "address"
        }
      ],
      "payable": false,
      "stateMutability": "view",
      "type": "function"
    },
    {
      "constant": false,
      "inputs": [
        {
          "name": "_to",
          "type": "address"
        },
        {
          "name": "_value",
          "type": "uint256"
        }
      ],
      "name": "transfer",
      "outputs": [],
      "payable": false,
      "stateMutability": "nonpayable",
      "type": "function"
    },
    {
      "constant": false,
      "inputs": [
        {
          "name": "_value",
          "type": "uint256"
        }
      ],
      "name": "buy",
      "outputs": [],
      "payable": false,
      "stateMutability": "nonpayable",
      "type": "function"
    },
    {
      "constant": false,
      "inputs": [
        {
          "name": "newOwner",
          "type": "address"
        }
      ],
      "name": "transferOwnership",
      "outputs": [],
      "payable": false,
      "stateMutability": "nonpayable",
      "type": "function"
    },
    {
      "constant": false,
      "inputs": [
        {
          "name": "newOwner",
          "type": "address"
        }
      ],
      "name": "addOwnership",
      "outputs": [],
      "payable": false,
      "stateMutability": "nonpayable",
      "type": "function"
    },
    {
      "inputs": [],
      "payable": false,
      "stateMutability": "nonpayable",
      "type": "constructor"
    },
    {
      "anonymous": false,
      "inputs": [
        {
          "indexed": false,
          "name": "room_id",
          "type": "uint256"
        },
        {
          "indexed": false,
          "name": "booker",
          "type": "address"
        }
      ],
      "name": "Booked",
      "type": "event"
    },
    {
      "anonymous": false,
      "inputs": [
        {
          "indexed": false,
          "name": "room_id",
          "type": "uint256"
        },
        {
          "indexed": false,
          "name": "booker",
          "type": "address"
        }
      ],
      "name": "BookFailed",
      "type": "event"
    },
    {
      "anonymous": false,
      "inputs": [
        {
          "indexed": false,
          "name": "room_id",
          "type": "uint256"
        },
        {
          "indexed": false,
          "name": "booker",
          "type": "address"
        }
      ],
      "name": "BookingRemoved",
      "type": "event"
    },
    {
      "anonymous": false,
      "inputs": [
        {
          "indexed": false,
          "name": "sender",
          "type": "address"
        }
      ],
      "name": "BlockSuccess",
      "type": "event"
    },
    {
      "anonymous": false,
      "inputs": [
        {
          "indexed": false,
          "name": "sender",
          "type": "address"
        }
      ],
      "name": "UnblockSuccess",
      "type": "event"
    },
    {
      "anonymous": false,
      "inputs": [
        {
          "indexed": false,
          "name": "sellPrice",
          "type": "uint256"
        },
        {
          "indexed": false,
          "name": "room_id",
          "type": "uint256"
        },
        {
          "indexed": false,
          "name": "adder",
          "type": "address"
        }
      ],
      "name": "RoomAdded",
      "type": "event"
    },
    {
      "anonymous": false,
      "inputs": [
        {
          "indexed": false,
          "name": "rooms",
          "type": "uint256[]"
        }
      ],
      "name": "Lit",
      "type": "event"
    },
    {
      "anonymous": false,
      "inputs": [
        {
          "indexed": true,
          "name": "_from",
          "type": "address"
        },
        {
          "indexed": true,
          "name": "_to",
          "type": "address"
        },
        {
          "indexed": false,
          "name": "_value",
          "type": "uint256"
        }
      ],
      "name": "Transfer",
      "type": "event"
    },
    {
      "anonymous": false,
      "inputs": [
        {
          "indexed": false,
          "name": "_value",
          "type": "uint256"
        },
        {
          "indexed": false,
          "name": "_sender",
          "type": "address"
        }
      ],
      "name": "NoCash",
      "type": "event"
    },
    {
      "anonymous": false,
      "inputs": [
        {
          "indexed": false,
          "name": "_value",
          "type": "uint256"
        },
        {
          "indexed": false,
          "name": "_by",
          "type": "address"
        }
      ],
      "name": "Buy",
      "type": "event"
    },
    {
      "anonymous": false,
      "inputs": [
        {
          "indexed": false,
          "name": "account",
          "type": "address"
        },
        {
          "indexed": false,
          "name": "_value",
          "type": "uint256"
        }
      ],
      "name": "Burn",
      "type": "event"
    },
    {
      "anonymous": false,
      "inputs": [
        {
          "indexed": false,
          "name": "newOwner",
          "type": "address"
        }
      ],
      "name": "TransferOwnership",
      "type": "event"
    },
    {
      "anonymous": false,
      "inputs": [
        {
          "indexed": false,
          "name": "newOwner",
          "type": "address"
        }
      ],
      "name": "AddOwnership",
      "type": "event"
    },
    {
      "constant": true,
      "inputs": [
        {
          "name": "room_id",
          "type": "uint256"
        }
      ],
      "name": "getRoom",
      "outputs": [
        {
          "name": "",
          "type": "uint256"
        },
        {
          "name": "",
          "type": "uint256"
        },
        {
          "name": "",
          "type": "address"
        },
        {
          "name": "",
          "type": "bool"
        },
        {
          "name": "",
          "type": "bool"
        }
      ],
      "payable": false,
      "stateMutability": "view",
      "type": "function"
    },
    {
      "constant": true,
      "inputs": [
        {
          "name": "index",
          "type": "uint256"
        }
      ],
      "name": "getRoomByIndex",
      "outputs": [
        {
          "name": "",
          "type": "uint256"
        }
      ],
      "payable": false,
      "stateMutability": "view",
      "type": "function"
    },
    {
      "constant": true,
      "inputs": [
        {
          "name": "index",
          "type": "uint256"
        }
      ],
      "name": "temp",
      "outputs": [
        {
          "name": "",
          "type": "uint256"
        }
      ],
      "payable": false,
      "stateMutability": "view",
      "type": "function"
    },
    {
      "constant": true,
      "inputs": [],
      "name": "getRoomsLength",
      "outputs": [
        {
          "name": "",
          "type": "uint256"
        }
      ],
      "payable": false,
      "stateMutability": "view",
      "type": "function"
    },
    {
      "constant": true,
      "inputs": [],
      "name": "getBookedRooms",
      "outputs": [
        {
          "name": "",
          "type": "uint256[]"
        }
      ],
      "payable": false,
      "stateMutability": "view",
      "type": "function"
    },
    {
      "constant": false,
      "inputs": [
        {
          "name": "room_id",
          "type": "uint256"
        }
      ],
      "name": "book",
      "outputs": [],
      "payable": false,
      "stateMutability": "nonpayable",
      "type": "function"
    },
    {
      "constant": false,
      "inputs": [
        {
          "name": "room_id",
          "type": "uint256"
        }
      ],
      "name": "removeBooking",
      "outputs": [],
      "payable": false,
      "stateMutability": "nonpayable",
      "type": "function"
    },
    {
      "constant": false,
      "inputs": [
        {
          "name": "sellPrice",
          "type": "uint256"
        },
        {
          "name": "room_id",
          "type": "uint256"
        }
      ],
      "name": "addRoom",
      "outputs": [],
      "payable": false,
      "stateMutability": "nonpayable",
      "type": "function"
    },
    {
      "constant": false,
      "inputs": [
        {
          "name": "room_id",
          "type": "uint256"
        }
      ],
      "name": "blockRoom",
      "outputs": [],
      "payable": false,
      "stateMutability": "nonpayable",
      "type": "function"
    },
    {
      "constant": false,
      "inputs": [
        {
          "name": "room_id",
          "type": "uint256"
        }
      ],
      "name": "unblockRoom",
      "outputs": [],
      "payable": false,
      "stateMutability": "nonpayable",
      "type": "function"
    },
    {
      "constant": false,
      "inputs": [],
      "name": "blockAllRooms",
      "outputs": [],
      "payable": false,
      "stateMutability": "nonpayable",
      "type": "function"
    },
    {
      "constant": false,
      "inputs": [],
      "name": "unblockAllRooms",
      "outputs": [],
      "payable": false,
      "stateMutability": "nonpayable",
      "type": "function"
    }
  ],
  "bytecode": "0x6080604052600060035534801561001557600080fd5b50336000806101000a81548173ffffffffffffffffffffffffffffffffffffffff021916908373ffffffffffffffffffffffffffffffffffffffff160217905550600354600281905550600354600460008060009054906101000a900473ffffffffffffffffffffffffffffffffffffffff1673ffffffffffffffffffffffffffffffffffffffff1673ffffffffffffffffffffffffffffffffffffffff16815260200190815260200160002081905550336000806101000a81548173ffffffffffffffffffffffffffffffffffffffff021916908373ffffffffffffffffffffffffffffffffffffffff1602179055506121c9806101156000396000f30060806040526004361061016a576000357c0100000000000000000000000000000000000000000000000000000000900463ffffffff1680631116fd041461016f57806317c1f5491461019c57806318160ddd146101c95780631bae0ac8146101f45780631cee5d7a146102355780632ff2e9dc1461028c57806330e0789e146102b757806334f88b2f14610324578063367445291461035157806336e1d3a91461036857806340c10f191461039f57806342966c68146104045780636afbe639146104495780636c3755ad146104a05780636d8a74cb146104e157806370a082311461057257806382b2e257146105c95780638c2aee52146105f45780638da5cb5b14610685578063990a6cd1146106dc578063a9059cbb146106f3578063ad8a51e714610740578063d96a094a1461076b578063f2fde38b14610798578063f37a8e0e146107db578063f5a55ff614610847578063f7fba5061461088a578063fe3138df146108cb575b600080fd5b34801561017b57600080fd5b5061019a600480360381019080803590602001909291905050506108f8565b005b3480156101a857600080fd5b506101c760048036038101908080359060200190929190505050610b66565b005b3480156101d557600080fd5b506101de610ccf565b6040518082815260200191505060405180910390f35b34801561020057600080fd5b5061021f60048036038101908080359060200190929190505050610cd5565b6040518082815260200191505060405180910390f35b34801561024157600080fd5b5061024a610cf8565b604051808273ffffffffffffffffffffffffffffffffffffffff1673ffffffffffffffffffffffffffffffffffffffff16815260200191505060405180910390f35b34801561029857600080fd5b506102a1610d1e565b6040518082815260200191505060405180910390f35b3480156102c357600080fd5b50610322600480360381019080803573ffffffffffffffffffffffffffffffffffffffff169060200190929190803573ffffffffffffffffffffffffffffffffffffffff16906020019092919080359060200190929190505050610d24565b005b34801561033057600080fd5b5061034f60048036038101908080359060200190929190505050610f05565b005b34801561035d57600080fd5b5061036661104d565b005b34801561037457600080fd5b5061039d60048036038101908080359060200190929190803590602001909291905050506111cf565b005b3480156103ab57600080fd5b506103ea600480360381019080803573ffffffffffffffffffffffffffffffffffffffff169060200190929190803590602001909291905050506113c2565b604051808215151515815260200191505060405180910390f35b34801561041057600080fd5b5061042f6004803603810190808035906020019092919050505061156d565b604051808215151515815260200191505060405180910390f35b34801561045557600080fd5b5061048a600480360381019080803573ffffffffffffffffffffffffffffffffffffffff169060200190929190505050611741565b6040518082815260200191505060405180910390f35b3480156104ac57600080fd5b506104cb6004803603810190808035906020019092919050505061178a565b6040518082815260200191505060405180910390f35b3480156104ed57600080fd5b5061050c600480360381019080803590602001909291905050506117c8565b604051808681526020018581526020018473ffffffffffffffffffffffffffffffffffffffff1673ffffffffffffffffffffffffffffffffffffffff16815260200183151515158152602001821515151581526020019550505050505060405180910390f35b34801561057e57600080fd5b506105b3600480360381019080803573ffffffffffffffffffffffffffffffffffffffff16906020019092919050505061184d565b6040518082815260200191505060405180910390f35b3480156105d557600080fd5b506105de611865565b6040518082815260200191505060405180910390f35b34801561060057600080fd5b5061061f600480360381019080803590602001909291905050506118ac565b604051808681526020018581526020018473ffffffffffffffffffffffffffffffffffffffff1673ffffffffffffffffffffffffffffffffffffffff16815260200183151515158152602001821515151581526020019550505050505060405180910390f35b34801561069157600080fd5b5061069a61191c565b604051808273ffffffffffffffffffffffffffffffffffffffff1673ffffffffffffffffffffffffffffffffffffffff16815260200191505060405180910390f35b3480156106e857600080fd5b506106f1611941565b005b3480156106ff57600080fd5b5061073e600480360381019080803573ffffffffffffffffffffffffffffffffffffffff16906020019092919080359060200190929190505050611ac3565b005b34801561074c57600080fd5b50610755611ad2565b6040518082815260200191505060405180910390f35b34801561077757600080fd5b5061079660048036038101908080359060200190929190505050611adf565b005b3480156107a457600080fd5b506107d9600480360381019080803573ffffffffffffffffffffffffffffffffffffffff169060200190929190505050611b9a565b005b3480156107e757600080fd5b506107f0611d8f565b6040518080602001828103825283818151815260200191508051906020019060200280838360005b83811015610833578082015181840152602081019050610818565b505050509050019250505060405180910390f35b34801561085357600080fd5b50610888600480360381019080803573ffffffffffffffffffffffffffffffffffffffff169060200190929190505050611e96565b005b34801561089657600080fd5b506108b560048036038101908080359060200190929190505050612032565b6040518082815260200191505060405180910390f35b3480156108d757600080fd5b506108f660048036038101908080359060200190929190505050612055565b005b60006005600083815260200190815260200160002060000154905080600460003373ffffffffffffffffffffffffffffffffffffffff1673ffffffffffffffffffffffffffffffffffffffff168152602001908152602001600020541015801561098357506005600083815260200190815260200160002060020160159054906101000a900460ff16155b80156109b057506005600083815260200190815260200160002060020160149054906101000a900460ff16155b15610af65780600460003373ffffffffffffffffffffffffffffffffffffffff1673ffffffffffffffffffffffffffffffffffffffff16815260200190815260200160002060008282540392505081905550336005600084815260200190815260200160002060020160006101000a81548173ffffffffffffffffffffffffffffffffffffffff021916908373ffffffffffffffffffffffffffffffffffffffff16021790555060016005600084815260200190815260200160002060020160156101000a81548160ff0219169083151502179055507f13606b222bd5dafb207fc017447c6b980172b57bfd967f7950a4b5169eee7ca58233604051808381526020018273ffffffffffffffffffffffffffffffffffffffff1673ffffffffffffffffffffffffffffffffffffffff1681526020019250505060405180910390a1610b62565b7f89d44577ab00973f95f4aed5fcaa55f5a1e604f5ffda5352c5443d1a50a4ec138233604051808381526020018273ffffffffffffffffffffffffffffffffffffffff1673ffffffffffffffffffffffffffffffffffffffff1681526020019250505060405180910390a15b5050565b60006005600083815260200190815260200160002060020160009054906101000a900473ffffffffffffffffffffffffffffffffffffffff1690508073ffffffffffffffffffffffffffffffffffffffff163373ffffffffffffffffffffffffffffffffffffffff16141515610bdb57600080fd5b60006005600084815260200190815260200160002060020160006101000a81548173ffffffffffffffffffffffffffffffffffffffff021916908373ffffffffffffffffffffffffffffffffffffffff16021790555060006005600084815260200190815260200160002060020160156101000a81548160ff0219169083151502179055507ffa20481eb774227ee84c578ff5f5372d3694ba2b8affea1e4606b03f7c5f59de8282604051808381526020018273ffffffffffffffffffffffffffffffffffffffff1673ffffffffffffffffffffffffffffffffffffffff1681526020019250505060405180910390a15050565b60025481565b600681815481101515610ce457fe5b906000526020600020016000915090505481565b600160009054906101000a900473ffffffffffffffffffffffffffffffffffffffff1681565b60035481565b80600460008573ffffffffffffffffffffffffffffffffffffffff1673ffffffffffffffffffffffffffffffffffffffff1681526020019081526020016000205410151515610d7257600080fd5b600460008373ffffffffffffffffffffffffffffffffffffffff1673ffffffffffffffffffffffffffffffffffffffff1681526020019081526020016000205481600460008573ffffffffffffffffffffffffffffffffffffffff1673ffffffffffffffffffffffffffffffffffffffff168152602001908152602001600020540110151515610e0157600080fd5b80600460008573ffffffffffffffffffffffffffffffffffffffff1673ffffffffffffffffffffffffffffffffffffffff1681526020019081526020016000206000828254039250508190555080600460008473ffffffffffffffffffffffffffffffffffffffff1673ffffffffffffffffffffffffffffffffffffffff168152602001908152602001600020600082825401925050819055508173ffffffffffffffffffffffffffffffffffffffff168373ffffffffffffffffffffffffffffffffffffffff167fddf252ad1be2c89b69c2b068fc378daa952ba7f163c4a11628f55a4df523b3ef836040518082815260200191505060405180910390a3505050565b6000809054906101000a900473ffffffffffffffffffffffffffffffffffffffff1673ffffffffffffffffffffffffffffffffffffffff163373ffffffffffffffffffffffffffffffffffffffff161480610fad5750600160009054906101000a900473ffffffffffffffffffffffffffffffffffffffff1673ffffffffffffffffffffffffffffffffffffffff163373ffffffffffffffffffffffffffffffffffffffff16145b1515610fb857600080fd5b60016005600083815260200190815260200160002060020160146101000a81548160ff0219169083151502179055507f753e078f9c06bd045058a80e5cd26b94c30e497e24374ece778a5bee4a55ffa833604051808273ffffffffffffffffffffffffffffffffffffffff1673ffffffffffffffffffffffffffffffffffffffff16815260200191505060405180910390a150565b60008060009054906101000a900473ffffffffffffffffffffffffffffffffffffffff1673ffffffffffffffffffffffffffffffffffffffff163373ffffffffffffffffffffffffffffffffffffffff1614806110f75750600160009054906101000a900473ffffffffffffffffffffffffffffffffffffffff1673ffffffffffffffffffffffffffffffffffffffff163373ffffffffffffffffffffffffffffffffffffffff16145b151561110257600080fd5b600090505b6006805490508110156111695760006005600060068481548110151561112957fe5b9060005260206000200154815260200190815260200160002060020160146101000a81548160ff0219169083151502179055508080600101915050611107565b7fb4164c88021652ceb37ba498d019a1048513963ba9bac5adaacdd1cafd13f55333604051808273ffffffffffffffffffffffffffffffffffffffff1673ffffffffffffffffffffffffffffffffffffffff16815260200191505060405180910390a150565b600060056000838152602001908152602001600020905082816000018190555081816001018190555060008160020160146101000a81548160ff02191690831515021790555060008160020160156101000a81548160ff0219169083151502179055506006829080600181540180825580915050906001820390600052602060002001600090919290919091505550806005600084815260200190815260200160002060008201548160000155600182015481600101556002820160009054906101000a900473ffffffffffffffffffffffffffffffffffffffff168160020160006101000a81548173ffffffffffffffffffffffffffffffffffffffff021916908373ffffffffffffffffffffffffffffffffffffffff1602179055506002820160149054906101000a900460ff168160020160146101000a81548160ff0219169083151502179055506002820160159054906101000a900460ff168160020160156101000a81548160ff0219169083151502179055509050507f04d0458f34a5e6116a44e89fdb318b03e2ce59eaceb752503968639ca9f89f4a838333604051808481526020018381526020018273ffffffffffffffffffffffffffffffffffffffff1673ffffffffffffffffffffffffffffffffffffffff168152602001935050505060405180910390a1505050565b60008060009054906101000a900473ffffffffffffffffffffffffffffffffffffffff1673ffffffffffffffffffffffffffffffffffffffff163373ffffffffffffffffffffffffffffffffffffffff16148061146c5750600160009054906101000a900473ffffffffffffffffffffffffffffffffffffffff1673ffffffffffffffffffffffffffffffffffffffff163373ffffffffffffffffffffffffffffffffffffffff16145b151561147757600080fd5b600460008473ffffffffffffffffffffffffffffffffffffffff1673ffffffffffffffffffffffffffffffffffffffff1681526020019081526020016000205482600460008673ffffffffffffffffffffffffffffffffffffffff1673ffffffffffffffffffffffffffffffffffffffff16815260200190815260200160002054011015151561150657600080fd5b81600460008573ffffffffffffffffffffffffffffffffffffffff1673ffffffffffffffffffffffffffffffffffffffff16815260200190815260200160002060008282540192505081905550816002600082825401925050819055506001905092915050565b60008060009054906101000a900473ffffffffffffffffffffffffffffffffffffffff1673ffffffffffffffffffffffffffffffffffffffff163373ffffffffffffffffffffffffffffffffffffffff1614806116175750600160009054906101000a900473ffffffffffffffffffffffffffffffffffffffff1673ffffffffffffffffffffffffffffffffffffffff163373ffffffffffffffffffffffffffffffffffffffff16145b151561162257600080fd5b81600460003373ffffffffffffffffffffffffffffffffffffffff1673ffffffffffffffffffffffffffffffffffffffff168152602001908152602001600020541015151561167057600080fd5b81600460003373ffffffffffffffffffffffffffffffffffffffff1673ffffffffffffffffffffffffffffffffffffffff16815260200190815260200160002060008282540392505081905550816002600082825403925050819055507fcc16f5dbb4873280815c1ee09dbd06736cffcc184412cf7a71a0fdb75d397ca53383604051808373ffffffffffffffffffffffffffffffffffffffff1673ffffffffffffffffffffffffffffffffffffffff1681526020018281526020019250505060405180910390a160019050919050565b6000600460008373ffffffffffffffffffffffffffffffffffffffff1673ffffffffffffffffffffffffffffffffffffffff168152602001908152602001600020549050919050565b600080600560006006858154811015156117a057fe5b9060005260206000200154815260200190815260200160002090508060010154915050919050565b600080600080600080600560008881526020019081526020016000209050806000015481600101548260020160009054906101000a900473ffffffffffffffffffffffffffffffffffffffff168360020160159054906101000a900460ff168460020160149054906101000a900460ff16955095509550955095505091939590929450565b60046020528060005260406000206000915090505481565b6000600460003373ffffffffffffffffffffffffffffffffffffffff1673ffffffffffffffffffffffffffffffffffffffff16815260200190815260200160002054905090565b60056020528060005260406000206000915090508060000154908060010154908060020160009054906101000a900473ffffffffffffffffffffffffffffffffffffffff16908060020160149054906101000a900460ff16908060020160159054906101000a900460ff16905085565b6000809054906101000a900473ffffffffffffffffffffffffffffffffffffffff1681565b60008060009054906101000a900473ffffffffffffffffffffffffffffffffffffffff1673ffffffffffffffffffffffffffffffffffffffff163373ffffffffffffffffffffffffffffffffffffffff1614806119eb5750600160009054906101000a900473ffffffffffffffffffffffffffffffffffffffff1673ffffffffffffffffffffffffffffffffffffffff163373ffffffffffffffffffffffffffffffffffffffff16145b15156119f657600080fd5b600090505b600680549050811015611a5d57600160056000600684815481101515611a1d57fe5b9060005260206000200154815260200190815260200160002060020160146101000a81548160ff02191690831515021790555080806001019150506119fb565b7f753e078f9c06bd045058a80e5cd26b94c30e497e24374ece778a5bee4a55ffa833604051808273ffffffffffffffffffffffffffffffffffffffff1673ffffffffffffffffffffffffffffffffffffffff16815260200191505060405180910390a150565b611ace338383610d24565b5050565b6000600680549050905090565b80600460003373ffffffffffffffffffffffffffffffffffffffff1673ffffffffffffffffffffffffffffffffffffffff168152602001908152602001600020600082825401925050819055507f7534e9c9396820aad756ba27f82162930f80bef863aabdf311e7dce26a79bccd8133604051808381526020018273ffffffffffffffffffffffffffffffffffffffff1673ffffffffffffffffffffffffffffffffffffffff1681526020019250505060405180910390a150565b6000809054906101000a900473ffffffffffffffffffffffffffffffffffffffff1673ffffffffffffffffffffffffffffffffffffffff163373ffffffffffffffffffffffffffffffffffffffff161480611c425750600160009054906101000a900473ffffffffffffffffffffffffffffffffffffffff1673ffffffffffffffffffffffffffffffffffffffff163373ffffffffffffffffffffffffffffffffffffffff16145b1515611c4d57600080fd5b6000809054906101000a900473ffffffffffffffffffffffffffffffffffffffff1673ffffffffffffffffffffffffffffffffffffffff163373ffffffffffffffffffffffffffffffffffffffff161415611ce757806000806101000a81548173ffffffffffffffffffffffffffffffffffffffff021916908373ffffffffffffffffffffffffffffffffffffffff160217905550611d29565b80600160006101000a81548173ffffffffffffffffffffffffffffffffffffffff021916908373ffffffffffffffffffffffffffffffffffffffff1602179055505b7fcfaaa26691e16e66e73290fc725eee1a6b4e0e693a1640484937aac25ffb55a481604051808273ffffffffffffffffffffffffffffffffffffffff1673ffffffffffffffffffffffffffffffffffffffff16815260200191505060405180910390a150565b606060008060008091505b600680549050821015611e3e5760056000600684815481101515611dba57fe5b9060005260206000200154815260200190815260200160002060020160159054906101000a900460ff1690508015611e315782600683815481101515611dfc57fe5b906000526020600020015490806001815401808255809150509060018203906000526020600020016000909192909190915055505b8180600101925050611d9a565b82805480602002602001604051908101604052809291908181526020018280548015611e8957602002820191906000526020600020905b815481526020019060010190808311611e75575b5050505050935050505090565b6000809054906101000a900473ffffffffffffffffffffffffffffffffffffffff1673ffffffffffffffffffffffffffffffffffffffff163373ffffffffffffffffffffffffffffffffffffffff161480611f3e5750600160009054906101000a900473ffffffffffffffffffffffffffffffffffffffff1673ffffffffffffffffffffffffffffffffffffffff163373ffffffffffffffffffffffffffffffffffffffff16145b1515611f4957600080fd5b6000600160009054906101000a900473ffffffffffffffffffffffffffffffffffffffff1673ffffffffffffffffffffffffffffffffffffffff16141561202f5780600160006101000a81548173ffffffffffffffffffffffffffffffffffffffff021916908373ffffffffffffffffffffffffffffffffffffffff1602179055507f2877a49ca1c6abc65552edfb2a2b14daf6d7da81a6e0ce15d63b18edefd145e481604051808273ffffffffffffffffffffffffffffffffffffffff1673ffffffffffffffffffffffffffffffffffffffff16815260200191505060405180910390a15b50565b600060068281548110151561204357fe5b90600052602060002001549050919050565b6000809054906101000a900473ffffffffffffffffffffffffffffffffffffffff1673ffffffffffffffffffffffffffffffffffffffff163373ffffffffffffffffffffffffffffffffffffffff1614806120fd5750600160009054906101000a900473ffffffffffffffffffffffffffffffffffffffff1673ffffffffffffffffffffffffffffffffffffffff163373ffffffffffffffffffffffffffffffffffffffff16145b151561210857600080fd5b60006005600083815260200190815260200160002060020160146101000a81548160ff0219169083151502179055507fb4164c88021652ceb37ba498d019a1048513963ba9bac5adaacdd1cafd13f55333604051808273ffffffffffffffffffffffffffffffffffffffff1673ffffffffffffffffffffffffffffffffffffffff16815260200191505060405180910390a1505600a165627a7a723058202057d2bd4acdc40aabce7141a9daa5936e7b635bf48cb5a5d2a981842904fcff0029",
  "source": "pragma solidity ^0.4.18;\r\n\r\nimport \"./Token.sol\";\r\n\r\ncontract Booking is Token {\r\n    \r\n    struct Room {\r\n        uint _sellPrice;\r\n        uint _roomID;\r\n        address holder;\r\n        bool blocked;\r\n        bool booked;\r\n    }\r\n\r\n    //_roomID => Room, null if no one has booked it\r\n    mapping (uint => Room) public roomMap;\r\n\r\n    //list of room ID's\r\n    uint[] public rooms;\r\n\r\n    event Booked (\r\n        uint room_id, address booker\r\n    );\r\n\r\n    event BookFailed (\r\n        uint room_id, address booker\r\n    );\r\n\r\n    event BookingRemoved (\r\n        uint room_id, address booker\r\n    );\r\n\r\n    event BlockSuccess (\r\n        address sender\r\n    );\r\n\r\n    event UnblockSuccess (\r\n        address sender\r\n    );\r\n\r\n    event RoomAdded (\r\n        uint sellPrice, uint room_id, address adder\r\n    );\r\n\r\n    event Lit (\r\n        uint[] rooms\r\n    );\r\n    \r\n    //Constructor\r\n    function Booking() public {\r\n        owner = msg.sender;\r\n    }\r\n\r\n    function getRoom(uint room_id) public view returns (uint, uint, address, bool, bool) {\r\n        Room storage room = roomMap[room_id];\r\n        return (room._sellPrice, room._roomID, room.holder, room.booked, room.blocked);\r\n    }\r\n    \r\n    function getRoomByIndex(uint index) public view returns (uint) {\r\n        return rooms[index];\r\n    }\r\n\r\n    function temp(uint index) public view returns (uint) {\r\n        Room storage room = roomMap[rooms[index]];\r\n        return room._roomID;\r\n    }\r\n\r\n    function getRoomsLength() public view returns (uint) {\r\n        return rooms.length;\r\n    }\r\n\r\n    function getBookedRooms() public view returns (uint[]) {\r\n        uint[] storage roomList;\r\n        for (uint i = 0; i < rooms.length; i++) {\r\n            bool booked = roomMap[rooms[i]].booked;\r\n            if (booked) {\r\n                roomList.push(rooms[i]);\r\n            }\r\n        }\r\n        return roomList;\r\n    }\r\n    //notBooked(room_id) notBlocked(room_id)\r\n    //Book a room if empty, send BookFailed otherwise\r\n    function book(uint room_id) public {\r\n        uint price = roomMap[room_id]._sellPrice;\r\n        if (balanceOf[msg.sender] >= price &&\r\n         !roomMap[room_id].booked &&\r\n         !roomMap[room_id].blocked) {\r\n            balanceOf[msg.sender] -= price;\r\n            roomMap[room_id].holder = msg.sender;\r\n            roomMap[room_id].booked = true;\r\n            emit Booked(room_id, msg.sender);\r\n        } else {\r\n            emit BookFailed(room_id, msg.sender);\r\n        }\r\n    }\r\n    \r\n    //Cancel a room booking\r\n    function removeBooking(uint room_id) public {\r\n        address holder = roomMap[room_id].holder;\r\n        require(msg.sender == holder);\r\n        roomMap[room_id].holder = 0x0;\r\n        roomMap[room_id].booked = false;\r\n        emit BookingRemoved(room_id, holder);\r\n    }\r\n\r\n    //Add a room to the list of available rooms\r\n    function addRoom(uint sellPrice, uint room_id) public {\r\n        Room storage newRoom = roomMap[room_id];\r\n        newRoom._sellPrice = sellPrice;\r\n        newRoom._roomID = room_id;\r\n        newRoom.blocked = false;\r\n        newRoom.booked = false;        \r\n        rooms.push(room_id);\r\n        roomMap[room_id] = newRoom;\r\n        emit RoomAdded(sellPrice, room_id, msg.sender);\r\n    }\r\n\r\n    //Prevent users from booking a certain room\r\n    function blockRoom(uint room_id) onlyOwner public {\r\n        roomMap[room_id].blocked = true;\r\n        emit BlockSuccess(msg.sender);\r\n    }\r\n\r\n    function unblockRoom(uint room_id) onlyOwner public {\r\n        roomMap[room_id].blocked = false;\r\n        emit UnblockSuccess(msg.sender);\r\n    }\r\n\r\n    function blockAllRooms() onlyOwner public {\r\n        for (uint i = 0; i < rooms.length; i++) {\r\n            roomMap[rooms[i]].blocked = true;\r\n        }\r\n        emit BlockSuccess(msg.sender);\r\n    }\r\n\r\n    function unblockAllRooms() onlyOwner public {\r\n        for (uint i = 0; i < rooms.length; i++) {\r\n            roomMap[rooms[i]].blocked = false;\r\n        }\r\n        emit UnblockSuccess(msg.sender);\r\n    }\r\n}",
  "sourcePath": "/Users/jasonfan/Desktop/project/api/contracts/Booking.sol",
  "compiler": {
    "name": "solc",
    "version": "0.4.24+commit.e67f0147.Emscripten.clang"
  },
  "schemaVersion": "2.0.1",
  "updatedAt": "2018-07-24T01:43:55.257Z"
}